:100000000C9462000C948A000C948A000C948A0070
:100010000C948A000C948A000C948A000C948A0038
:100020000C948A000C948A000C948A000C948A0028
:100030000C948A000C948A000C948A000C948A0018
:100040000C948F020C948A000C948A000C948A0001
:100050000C948A000C948A000C948A000C948A00F8
:100060000C94D9020C948A000000000023002600A2
:10007000290000000008000201000003040700003E
:1000800000000000000000000000250028002B00F8
:1000900000000000240027002A00040404040404D3
:1000A0000404020202020202030303030303010227
:1000B00004081020408001020408102001020408F6
:1000C0001020070411241FBECFEFD8E0DEBFCDBF44
:1000D00011E0A0E0B1E0E0E9F5E102C005900D9289
:1000E000A035B107D9F722E0A0E5B1E001C01D922B
:1000F000AE34B207E1F710E0C2E6D0E004C02197C9
:10010000FE010E94D107C136D107C9F70E943C0405
:100110000C94C60A0C94000090E0FC01E255FF4FDD
:100120002491FC01E656FF4F8491882399F090E0DA
:10013000880F991FFC01E057FF4FA591B491FC0176
:10014000EA57FF4F859194918FB7F894EC91E22B89
:10015000EC938FBF0895833081F028F4813099F0BB
:100160008230A1F008958730A9F08830B9F084304A
:10017000D1F4809180008F7D03C0809180008F77C3
:1001800080938000089584B58F7702C084B58F7DF9
:1001900084BD08958091B0008F7703C08091B00036
:1001A0008F7D8093B00008951F93CF93DF93282F06
:1001B00030E0F901EE58FF4F8491F901E255FF4F0D
:1001C000D491F901E656FF4FC491CC23C1F0162F0C
:1001D00081110E94AB00EC2FF0E0EE0FFF1FEA57F9
:1001E000FF4FA591B4919FB7F894111104C08C9161
:1001F000D095D82302C0EC91DE2BDC939FBFDF911A
:10020000CF911F910895CF93DF93C82FD0E08091B5
:100210003B02D81758F4ED2FF0E0ED5DFD4F6091F3
:10022000260287850E94D400DF5FF1CFEC2FF0E03B
:10023000ED5DFD4F609124028781DF91CF910C9499
:10024000D400CF93DF93C82FD0E080913A02D81723
:1002500058F4ED2FF0E0ED5DFD4F609124028781B1
:100260000E94D400DF5FF1CFEC2FF0E0ED5DFD4F99
:10027000609126028785DF91CF910C94D4001F9363
:10028000CF93DF93C82FD0E0CD5DDD4F6091230287
:100290008F810E94D40010E06A9680913B0218176B
:1002A000A8F4E12FF0E0888190E0012E02C095953E
:1002B00087950A94E2F780FF07C0ED5DFD4F6091DE
:1002C000250287850E94D4001F5FE7CFDF91CF9181
:1002D0001F9108950F931F93CF93C82FE82FF0E03D
:1002E000ED5DFD4F6091250287850E94D40001E0FD
:1002F00010E002C0000F111FCA95E2F7C0E0809124
:100300003A02C81788F4EC2FF0E0ED5DFD4F828DC6
:1003100090E080239123892B29F06091230287812B
:100320000E94D400CF5FEBCFCF911F910F91089522
:100330008230910538F0880F991F880F991F059713
:100340000197F1F7089508950895CF92DF92EF9203
:10035000FF920F931F93CF93DF936C017A018B0170
:10036000C0E0D0E0CE15DF0581F0D8016D918D01A0
:10037000D601ED91FC910190F081E02DC601099527
:10038000892B11F02196EECF7E01C701DF91CF912D
:100390001F910F91FF90EF90DF90CF90089585ED22
:1003A0008093BC008091BC0084FDFCCF1092E101E1
:1003B000089540917001262F30E0240F311D213225
:1003C0003105DCF42091E1012430C9F4FC0180E026
:1003D00090E0861758F4309170012191DC01A05B08
:1003E000BE4FA30FB11D2C930196F3CF80917001E6
:1003F000680F6093700180E0089581E0089582E0C5
:1004000008950895E091E3018091E201E81730F446
:10041000F0E0EC51FE4F808190E008958FEF9FEF68
:1004200008959091E3018091E201981750F4E92F2B
:10043000F0E0EC51FE4F208130E09F5F9093E301AC
:1004400002C02FEF3FEFC90108958091E20190E0D3
:100450002091E301821B91090895CF92DF92EF92E0
:10046000FF920F931F93CF93DF937C01CB018A01FF
:1004700020919701222389F0EB016B01C40ED51E58
:10048000CC15DD0569F06991D701ED91FC910190E2
:10049000F081E02DC7010995F3CF642F0E94D901A7
:1004A000C801DF91CF911F910F91FF90EF90DF90E6
:1004B000CF900895CF93DF931F92CDB7DEB76983B6
:1004C000209197012223D1F02091BA01203240F0EF
:1004D00021E030E0FC013383228380E090E015C00E
:1004E00080919801E82FF0E0E756FE4F99819083C4
:1004F0008F5F809398018093BA0105C061E0CE01BF
:1005000001960E94D90181E090E00F90DF91CF9198
:100510000895089580E090E008950E94D7071F9203
:100520000F920FB60F9211242F933F938F939F93A7
:10053000AF93BF938091090290910A02A0910B02A0
:10054000B0910C023091080223E0230F2D3720F4E4
:100550000196A11DB11D05C026E8230F0296A11D1D
:10056000B11D209308028093090290930A02A09380
:100570000B02B0930C028091040290910502A091AD
:100580000602B09107020196A11DB11D80930402DD
:1005900090930502A0930602B0930702BF91AF911A
:1005A0009F918F913F912F910F900FBE0F901F90B1
:1005B00018951F920F920FB60F9211242F933F930D
:1005C0004F935F936F937F938F939F93AF93BF935B
:1005D000EF93FF938091B900887F803609F49CC027
:1005E00068F5883209F45BC090F4803109F454C096
:1005F00038F4882309F4F6C0883009F44DC0F6C0F9
:10060000883109F44CC0803209F45DC0EFC08034F9
:1006100009F468C048F4803309F455C0883309F000
:10062000E5C08093DF01D8C0803509F44FC088351C
:1006300009F45DC0883409F0D9C0D6C0883909F4FE
:10064000C7C0A8F4883709F467C038F4883609F4BD
:1006500063C0803709F460C0C9C0883809F4B8C0E5
:10066000803909F45FC0803809F0C0C05BC0803BAE
:1006700009F486C038F4803A09F466C0883A09F46F
:100680007FC0B4C0803C09F4A7C0883C09F4A4C072
:10069000883B09F48AC0AAC08091DC0110C0909107
:1006A000DE018091DD01981770F5E091DE0181E0B7
:1006B0008E0F8093DE01F0E0E554FE4F8081809341
:1006C000BB0085EC86C08093DF018EC0E091DE0127
:1006D00081E08E0F8093DE018091BB00F0E0E55455
:1006E000FE4F80839091DE018091DD016EC0E0912C
:1006F000DE0181E08E0F8093DE018091BB00F0E08F
:10070000E554FE4F80838091E00181116DC081E04E
:100710008093DB0184EA61C083E08093E101109261
:100720009201CFCF80919201803208F051C0E091C8
:10073000920181E08E0F809392018091BB00F0E0E6
:10074000EE58FE4F8083BDCF85EC8093BC001092A5
:10075000E10180919201803230F4E0919201F0E069
:10076000EE58FE4F10826091920170E0E09193018B
:10077000F091940182E791E009951092920136C0C0
:1007800084E08093E1011092710110927001E09178
:100790009501F0919601099580917001811105C034
:1007A00081E08093700110925001E091710181E02D
:1007B0008E0F80937101F0E0E05BFE4F80818093AB
:1007C000BB009091710180917001981708F479CF66
:1007D00085E88093BC000AC085EC8093BC00109231
:1007E000E10104C01092DF010E94CF01FF91EF915F
:1007F000BF91AF919F918F917F916F915F914F9139
:100800003F912F910F900FBE0F901F901895CF938F
:10081000DF93EDE0F2E01382128288EE93E0A0E035
:10082000B0E084839583A683B78388E391E09183C6
:100830008083E3E2F2E080ED97E097A386A311A620
:1008400010A612A6178A118E12A213A214A215A224
:1008500014821582C9E1D2E01D821C828DE00E94C3
:100860008C0084EF91E0998388838DE090E09B83F6
:100870008A83DF91CF910895CF93DF93CDB7DEB711
:100880002E970FB6F894DEBF0FBECDBF789484B517
:10089000826084BD84B5816084BD85B5826085BD7C
:1008A00085B5816085BD80916E00816080936E000A
:1008B00010928100809181008260809381008091FC
:1008C00081008160809381008091800081608093AD
:1008D00080008091B10084608093B1008091B0006D
:1008E00081608093B00080917A00846080937A0068
:1008F00080917A00826080937A0080917A00816092
:1009000080937A0080917A00806880937A001092B8
:10091000C1008DE00E948C001092E3011092E20170
:10092000109298011092BA011092E101FF24F39401
:10093000F092E0011092DB0161E082E10E94D400BC
:1009400061E083E10E94D4008091B9008E7F8093A2
:10095000B9008091B9008D7F8093B90088E48093BD
:10096000B80085E48093BC0083EA91E090939601FF
:100970008093950184EA91E0909394018093930190
:100980008091000190910101A0910201B0910301B9
:100990008B879C87AD87BE8788E0E4E0F1E08E011D
:1009A0000F5F1F4FD80101900D928A95E1F71092C9
:1009B0002702109228021092290284E080933A02C2
:1009C00088E080933B0210922302F0922502F0927D
:1009D000240210922602F801A2E3B2E0CE010996A9
:1009E00021912D938E179F07D9F78B8580932A022B
:1009F0008C8580932B028D8580932C028E8580932D
:100A00002D02F12C80913A02F81610F0F12C12C050
:100A10008F2D90E09C012D5D3D4F6901F90187818B
:100A20000E948C0060912402F60187810E94D4000C
:100A3000F394E8CF80913B02F81690F48F2D90E06C
:100A40009C012D5D3D4F6901F90187850E948C0055
:100A500060912602F60187850E94D400F394EACFC4
:100A600090913A02EDE3F2E080E0981719F01192CC
:100A70008F5FFBCF80E00E94210180E00E94030194
:100A800088E097E090934A028093490210924C02CA
:100A900010924B0210924D028FB7F89440910902C8
:100AA00050910A0260910B0270910C028FBFE6E434
:100AB000EE2EE1E0FE2EF0E49F2EA0E0CA2EA0E094
:100AC000DA2EBB24B394B8E68B2EAA24AA9463E64C
:100AD000762E70E8672E8FB7F89420900902309038
:100AE0000A0240900B0250900C028FBF80911902B5
:100AF00090911A02092E000CAA0BBB0B40911F0209
:100B0000509120026091210270912202840F951F62
:100B1000A61FB71F82159305A405B50508F037C0B9
:100B200020921F0230922002409221025092220213
:100B300020911B0230911C023327F901EE58FF4F20
:100B40008491F901E255FF4F5490F901E656FF4FA9
:100B500044904420A1F081110E94AB00E42DF0E00C
:100B6000EE0FFF1FE859FF4FA591B491EC915E2263
:100B700091E080E009F490E0692F782F02C060E0F6
:100B800070E0F1E06F2780911B020E94D400B092C8
:100B900097018092B901109298011092BA0160E019
:100BA0008DE092E00E945A029091BA01913208F0D1
:100BB00042C08091E1018111FCCF82E08093E1018C
:100BC000B092E001A092DF011092DE019093DD016E
:100BD000A9E9B1E0EBEBF1E080E0981721F02D916D
:100BE00021938F5FFACF1092DC018091DC01806D40
:100BF0008093DC018091DB01813061F41092DB0194
:100C00008091DC018093BB008091BC0083FDF8CF14
:100C100085EC01C085EE8093BC008091E1018230BB
:100C2000E1F38091DF018F3F31F08091DF0180326D
:100C300011F08091DF01109298011092BA01109288
:100C400097018091E1018111FCCFB092E101B09256
:100C5000E001A092DF011092DE0186E08093DD01C9
:100C6000B092DC018091DC01806D8093DC01809189
:100C7000DB01813061F41092DB018091DC01809313
:100C8000BB008091BC0083FDF8CF85EC01C085EEF0
:100C90008093BC008091E1018130E1F38091DE011D
:100CA000873018F49091DE0101C097E0EBEBF1E0A2
:100CB000A4EEB1E080E0891721F021912D938F5FA0
:100CC000FACF1092E3018093E2018DE092E00E945E
:100CD00011028DE092E00E941102582E8DE092E008
:100CE0000E941102952D92959F70252D2F70522EE6
:100CF0003AE0939F500C11241F925F92982F969583
:100D0000969596959670292F220F220F920F8F702D
:100D1000890F1F928F93FF92EF921F930F930E9460
:100D2000DC0720913A020FB6F894DEBF0FBECDBFAC
:100D3000EDE3F2E080E0281719F011928F5FFBCF0E
:100D4000A3E2B2E090E080E0291709F453C0F80173
:100D5000E80FF11DE081EE2309F44CC030ED3E0FA9
:100D60003A3030F40E2E000CFF0BE452FF4F09C056
:100D70003FEB3E0F3A3150F40E2E000CFF0BEB52BE
:100D8000FF4F30815A963C935A971FC03FE93E0F60
:100D90003A3130F40E2E000CFF0BEB54FF4FF1CF25
:100DA000E03221F45A961C925A970FC0EE3221F489
:100DB0005A966C925A9709C0EA3221F45A967C925C
:100DC0005A9703C05A969C925A9731E0380FF8010F
:100DD000E30FF11D40814E3249F45A963C915A97E7
:100DE00030685A963C935A9732E0380F9F5F1196BD
:100DF000832FAACF80912802811194C03FB7F89425
:100E00008091040290910502A0910602B091070220
:100E100026B5A89B05C02F3F19F00196A11DB11D55
:100E20003FBFBA2FA92F982F8827820F911DA11D90
:100E3000B11D42E0880F991FAA1FBB1F4A95D1F729
:100E400020914D0240914502509146026091470227
:100E5000709148021C012D01241A350A460A570ACE
:100E6000222329F040914B0250914C0204C0409142
:100E7000490250914A02052E000C660B770B24168E
:100E800035064606570608F485C0809345029093C0
:100E90004602A0934702B093480280912702811135
:100EA00022C0222319F010924D020DC080913C0205
:100EB0000E94210180914B0290914C02892B19F0E4
:100EC000B0924D0267C080913C028F5F80933C02DC
:100ED00090913B02891710F010923C0280913C02E5
:100EE0000E946A0157C0222319F010924D020AC0D5
:100EF00080913C020E94030180914B0290914C0230
:100F0000892BF1F680913C028F5F80933C02909197
:100F10003A02891710F010923C0280913C020E9424
:100F20003F0138C080912702512C81112FC0809140
:100F30003B02581678F5852D0E946A01809149027E
:100F400090914A020E949801852D0E942101809172
:100F50004B0290914C02009711F00E94980153941B
:100F6000E6CF852D0E943F018091490290914A026F
:100F70000E949801852D0E94030180914B0290915F
:100F80004C02009711F00E949801539480913A020C
:100F9000581638F3C114D10409F49DCD0E94000005
:100FA00094CDEE0FFF1F0590F491E02D099481E0A0
:100FB00090E0F8940C94C60AAEE0B0E0E2EEF7E000
:100FC0000C949D0A0D891E8986E08C831A830983FF
:100FD0008FEF9FE79E838D83AE01475E5F4F6F89E2
:100FE000788DCE0101960E94FE07EF81F885E00F13
:100FF000F11F10822E96E4E00C94B90AABE0B0E049
:10100000E4E0F8E00C948F0A6C017B018A01FC019A
:1010100017821682838181FFCCC1CE0101963C01EB
:10102000F6019381F70193FD859193FF81917F01F3
:10103000882309F4BAC1853239F493FD859193FF71
:1010400081917F01853229F4B60190E00E94F50973
:10105000E7CF912C212C312CFFE1F315D8F08B3206
:1010600079F038F4803279F08332A1F4232D2061B5
:101070001DC08D3261F0803369F4232D216016C0CC
:10108000832D8260382EE32DE4603E2E2AC0F32D9E
:10109000F8601DC037FC2DC020ED280F2A3040F02D
:1010A0008E32B9F436FC81C1232D2064322E19C052
:1010B00036FE06C08AE0989E200D1124922E11C0A3
:1010C000EAE02E9E200D1124222EF32DF0623F2EF9
:1010D00008C08C3621F4832D8068382E02C08836F3
:1010E00041F4F70193FD859193FF81917F01811177
:1010F000B3CF982F9F7D9554933028F40C5F1F4FEA
:101100009FE399830DC0833631F0833771F08335C7
:1011100009F059C021C0F801808189830E5F1F4FFB
:1011200088248394912C530113C02801F2E04F0EC0
:10113000511CF801A080B18036FE03C0692D70E01B
:1011400002C06FEF7FEFC5010E94EA094C018201E6
:10115000F32DFF773F2E16C0280122E0420E511CCE
:10116000F801A080B18036FE03C0692D70E002C096
:101170006FEF7FEFC5010E94DF094C01F32DF0688E
:101180003F2E820133FC1BC0822D90E08816990609
:10119000B0F4B60180E290E00E94F5092A94F4CF01
:1011A000F50137FC859137FE81915F01B60190E032
:1011B0000E94F50921102A9421E0821A91088114D5
:1011C000910471F7E8C0843611F0893641F5F801D1
:1011D00037FE07C060817181828193810C5F1F4F50
:1011E00008C060817181072E000C880B990B0E5F7F
:1011F0001F4FF32DFF763F2E97FF09C090958095E6
:10120000709561957F4F8F4F9F4FF0683F2E2AE07A
:1012100030E0A3010E94310A882E861845C0853728
:1012200031F4232D2F7EB22E2AE030E025C0932DFD
:10123000997FB92E8F36C1F018F4883579F0B5C092
:10124000803719F0883721F0B0C0E92FE061BE2E59
:10125000B4FE0DC0FB2DF460BF2E09C034FE0AC0E1
:10126000292F2660B22E06C028E030E005C020E11C
:1012700030E002C020E132E0F801B7FE07C0608133
:101280007181828193810C5F1F4F06C060817181E3
:1012900080E090E00E5F1F4FA3010E94310A882E6C
:1012A0008618FB2DFF773F2E36FE0DC0232D2E7F97
:1012B000A22E891458F434FE0BC032FC09C0832DD1
:1012C0008E7EA82E05C0B82CA32C03C0B82C01C05C
:1012D000B92CA4FE0FC0FE01E80DF11D8081803302
:1012E00021F49A2D997EA92E09C0A2FE06C0B394BE
:1012F000B39404C08A2D867809F0B394A3FC11C07E
:10130000A0FE06C0B21488F4280C922C9B180EC0C4
:10131000B21460F4B60180E290E00E94F509B39443
:10132000F7CFB21418F42B1802C0982C212CA4FE6D
:1013300010C0B60180E390E00E94F509A2FE17C03C
:10134000A1FC03C088E790E002C088E590E0B60108
:101350000CC08A2D867859F0A1FE02C08BE201C034
:1013600080E2A7FC8DE2B60190E00E94F5098914A5
:1013700038F4B60180E390E00E94F5099A94F7CF23
:101380008A94F301E80DF11D8081B60190E00E947E
:10139000F5098110F5CF222009F442CEB60180E292
:1013A00090E00E94F5092A94F6CFF6018681978194
:1013B00002C08FEF9FEF2B96E2E10C94AB0AFC0189
:1013C0000590615070400110D8F7809590958E0F70
:1013D0009F1F0895FC016150704001900110D8F7E3
:1013E000809590958E0F9F1F08950F931F93CF9315
:1013F000DF93FB01238121FD03C08FEF9FEF2CC002
:1014000022FF16C046815781248135814217530738
:1014100044F4A081B1819D012F5F3F4F3183208330
:101420008C93268137812F5F3F4F3783268314C0EB
:101430008B01EC01FB010084F185E02D0995892BDE
:10144000E1F6D80116968D919C9117970196179603
:101450009C938E931697CE01DF91CF911F910F91A0
:101460000895FA01AA27283051F1203181F1E8943A
:101470006F936E7F6E5F7F4F8F4F9F4FAF4FB1E087
:101480003ED0B4E03CD0670F781F891F9A1FA11D82
:10149000680F791F8A1F911DA11D6A0F711D811D83
:1014A000911DA11D20D009F468943F912AE0269F48
:1014B00011243019305D3193DEF6CF010895462FA7
:1014C0004770405D4193B3E00FD0C9F7F6CF462F88
:1014D0004F70405D4A3318F0495D31FD40524193F1
:1014E00002D0A9F7EACFB4E0A695979587957795AE
:1014F0006795BA95C9F700976105710508959B0135
:10150000AC010A2E06945795479537952795BA95BD
:10151000C9F7620F731F841F951FA01D08952F9296
:101520003F924F925F926F927F928F929F92AF9273
:10153000BF92CF92DF92EF92FF920F931F93CF93C0
:10154000DF93CDB7DEB7CA1BDB0B0FB6F894DEBF57
:101550000FBECDBF09942A88398848885F846E847D
:101560007D848C849B84AA84B984C884DF80EE80C7
:10157000FD800C811B81AA81B981CE0FD11D0FB6D0
:10158000F894DEBF0FBECDBFED010895F894FFCFF4
:101590000C0B0A0902070605040308123F065B4FFD
:1015A000666D7D077F6F777C395E79713D76060EBB
:1015B000763800543F7367506D783E3E00766E5B20
:1015C00000408063000000005A022D028A020102DE
:1015D00025021102020225303264253032640000F7
:00000001FF
